{
  "abi": [
    {
      "type": "constructor",
      "inputs": [
        {
          "name": "_name",
          "type": "string",
          "internalType": "string"
        },
        {
          "name": "_description",
          "type": "string",
          "internalType": "string"
        },
        {
          "name": "_ipfsHash",
          "type": "string",
          "internalType": "string"
        },
        {
          "name": "_tokensPerUser",
          "type": "uint256",
          "internalType": "uint256"
        },
        {
          "name": "_tokensPerVerifiedUser",
          "type": "uint256",
          "internalType": "uint256"
        },
        {
          "name": "_minScoreToJoin",
          "type": "uint256",
          "internalType": "uint256"
        },
        {
          "name": "_minScoreToVerify",
          "type": "uint256",
          "internalType": "uint256"
        },
        {
          "name": "_endTime",
          "type": "uint256",
          "internalType": "uint256"
        },
        {
          "name": "_passportScorer",
          "type": "address",
          "internalType": "address"
        },
        {
          "name": "_admin",
          "type": "address",
          "internalType": "address"
        }
      ],
      "stateMutability": "nonpayable"
    },
    {
      "type": "function",
      "name": "castVote",
      "inputs": [
        {
          "name": "pollId",
          "type": "uint256",
          "internalType": "uint256"
        },
        {
          "name": "votingPower",
          "type": "uint256",
          "internalType": "uint256"
        }
      ],
      "outputs": [],
      "stateMutability": "nonpayable"
    },
    {
      "type": "function",
      "name": "config",
      "inputs": [],
      "outputs": [
        {
          "name": "name",
          "type": "string",
          "internalType": "string"
        },
        {
          "name": "description",
          "type": "string",
          "internalType": "string"
        },
        {
          "name": "ipfsHash",
          "type": "string",
          "internalType": "string"
        },
        {
          "name": "tokensPerUser",
          "type": "uint256",
          "internalType": "uint256"
        },
        {
          "name": "tokensPerVerifiedUser",
          "type": "uint256",
          "internalType": "uint256"
        },
        {
          "name": "minScoreToJoin",
          "type": "uint256",
          "internalType": "uint256"
        },
        {
          "name": "minScoreToVerify",
          "type": "uint256",
          "internalType": "uint256"
        },
        {
          "name": "endTime",
          "type": "uint256",
          "internalType": "uint256"
        }
      ],
      "stateMutability": "view"
    },
    {
      "type": "function",
      "name": "createPoll",
      "inputs": [
        {
          "name": "_name",
          "type": "string",
          "internalType": "string"
        },
        {
          "name": "_description",
          "type": "string",
          "internalType": "string"
        },
        {
          "name": "_ipfsHash",
          "type": "string",
          "internalType": "string"
        }
      ],
      "outputs": [
        {
          "name": "pollId",
          "type": "uint256",
          "internalType": "uint256"
        }
      ],
      "stateMutability": "nonpayable"
    },
    {
      "type": "function",
      "name": "getAllPolls",
      "inputs": [],
      "outputs": [
        {
          "name": "",
          "type": "tuple[]",
          "internalType": "struct QuadraticVoting.PollView[]",
          "components": [
            {
              "name": "name",
              "type": "string",
              "internalType": "string"
            },
            {
              "name": "description",
              "type": "string",
              "internalType": "string"
            },
            {
              "name": "ipfsHash",
              "type": "string",
              "internalType": "string"
            },
            {
              "name": "creator",
              "type": "address",
              "internalType": "address"
            },
            {
              "name": "isActive",
              "type": "bool",
              "internalType": "bool"
            },
            {
              "name": "totalVotes",
              "type": "uint256",
              "internalType": "uint256"
            },
            {
              "name": "totalParticipants",
              "type": "uint256",
              "internalType": "uint256"
            }
          ]
        }
      ],
      "stateMutability": "view"
    },
    {
      "type": "function",
      "name": "getPollInfo",
      "inputs": [
        {
          "name": "pollId",
          "type": "uint256",
          "internalType": "uint256"
        }
      ],
      "outputs": [
        {
          "name": "",
          "type": "tuple",
          "internalType": "struct QuadraticVoting.PollView",
          "components": [
            {
              "name": "name",
              "type": "string",
              "internalType": "string"
            },
            {
              "name": "description",
              "type": "string",
              "internalType": "string"
            },
            {
              "name": "ipfsHash",
              "type": "string",
              "internalType": "string"
            },
            {
              "name": "creator",
              "type": "address",
              "internalType": "address"
            },
            {
              "name": "isActive",
              "type": "bool",
              "internalType": "bool"
            },
            {
              "name": "totalVotes",
              "type": "uint256",
              "internalType": "uint256"
            },
            {
              "name": "totalParticipants",
              "type": "uint256",
              "internalType": "uint256"
            }
          ]
        }
      ],
      "stateMutability": "view"
    },
    {
      "type": "function",
      "name": "getProjectInfo",
      "inputs": [],
      "outputs": [
        {
          "name": "",
          "type": "tuple",
          "internalType": "struct QuadraticVoting.ProjectDetails",
          "components": [
            {
              "name": "name",
              "type": "string",
              "internalType": "string"
            },
            {
              "name": "description",
              "type": "string",
              "internalType": "string"
            },
            {
              "name": "ipfsHash",
              "type": "string",
              "internalType": "string"
            },
            {
              "name": "tokensPerUser",
              "type": "uint256",
              "internalType": "uint256"
            },
            {
              "name": "tokensPerVerifiedUser",
              "type": "uint256",
              "internalType": "uint256"
            },
            {
              "name": "minScoreToJoin",
              "type": "uint256",
              "internalType": "uint256"
            },
            {
              "name": "minScoreToVerify",
              "type": "uint256",
              "internalType": "uint256"
            },
            {
              "name": "endTime",
              "type": "uint256",
              "internalType": "uint256"
            },
            {
              "name": "owner",
              "type": "address",
              "internalType": "address"
            },
            {
              "name": "totalParticipants",
              "type": "uint256",
              "internalType": "uint256"
            },
            {
              "name": "totalPolls",
              "type": "uint256",
              "internalType": "uint256"
            }
          ]
        }
      ],
      "stateMutability": "view"
    },
    {
      "type": "function",
      "name": "getUserVotedPolls",
      "inputs": [
        {
          "name": "user",
          "type": "address",
          "internalType": "address"
        }
      ],
      "outputs": [
        {
          "name": "",
          "type": "uint256[]",
          "internalType": "uint256[]"
        }
      ],
      "stateMutability": "view"
    },
    {
      "type": "function",
      "name": "getVoteInfo",
      "inputs": [
        {
          "name": "pollId",
          "type": "uint256",
          "internalType": "uint256"
        },
        {
          "name": "voter",
          "type": "address",
          "internalType": "address"
        }
      ],
      "outputs": [
        {
          "name": "votingPower",
          "type": "uint256",
          "internalType": "uint256"
        },
        {
          "name": "hasVoted",
          "type": "bool",
          "internalType": "bool"
        },
        {
          "name": "isVerified",
          "type": "bool",
          "internalType": "bool"
        },
        {
          "name": "timestamp",
          "type": "uint256",
          "internalType": "uint256"
        }
      ],
      "stateMutability": "view"
    },
    {
      "type": "function",
      "name": "joinProject",
      "inputs": [],
      "outputs": [],
      "stateMutability": "nonpayable"
    },
    {
      "type": "function",
      "name": "owner",
      "inputs": [],
      "outputs": [
        {
          "name": "",
          "type": "address",
          "internalType": "address"
        }
      ],
      "stateMutability": "view"
    },
    {
      "type": "function",
      "name": "passportScorer",
      "inputs": [],
      "outputs": [
        {
          "name": "",
          "type": "address",
          "internalType": "contract IGitcoinPassport"
        }
      ],
      "stateMutability": "view"
    },
    {
      "type": "function",
      "name": "pollCount",
      "inputs": [],
      "outputs": [
        {
          "name": "",
          "type": "uint256",
          "internalType": "uint256"
        }
      ],
      "stateMutability": "view"
    },
    {
      "type": "function",
      "name": "pollsCore",
      "inputs": [
        {
          "name": "",
          "type": "uint256",
          "internalType": "uint256"
        }
      ],
      "outputs": [
        {
          "name": "name",
          "type": "string",
          "internalType": "string"
        },
        {
          "name": "description",
          "type": "string",
          "internalType": "string"
        },
        {
          "name": "ipfsHash",
          "type": "string",
          "internalType": "string"
        },
        {
          "name": "creator",
          "type": "address",
          "internalType": "address"
        },
        {
          "name": "isActive",
          "type": "bool",
          "internalType": "bool"
        }
      ],
      "stateMutability": "view"
    },
    {
      "type": "function",
      "name": "pollsStats",
      "inputs": [
        {
          "name": "",
          "type": "uint256",
          "internalType": "uint256"
        }
      ],
      "outputs": [
        {
          "name": "totalVotes",
          "type": "uint256",
          "internalType": "uint256"
        },
        {
          "name": "totalParticipants",
          "type": "uint256",
          "internalType": "uint256"
        }
      ],
      "stateMutability": "view"
    },
    {
      "type": "function",
      "name": "renounceOwnership",
      "inputs": [],
      "outputs": [],
      "stateMutability": "nonpayable"
    },
    {
      "type": "function",
      "name": "togglePollStatus",
      "inputs": [
        {
          "name": "pollId",
          "type": "uint256",
          "internalType": "uint256"
        }
      ],
      "outputs": [],
      "stateMutability": "nonpayable"
    },
    {
      "type": "function",
      "name": "totalParticipants",
      "inputs": [],
      "outputs": [
        {
          "name": "",
          "type": "uint256",
          "internalType": "uint256"
        }
      ],
      "stateMutability": "view"
    },
    {
      "type": "function",
      "name": "transferOwnership",
      "inputs": [
        {
          "name": "newOwner",
          "type": "address",
          "internalType": "address"
        }
      ],
      "outputs": [],
      "stateMutability": "nonpayable"
    },
    {
      "type": "function",
      "name": "users",
      "inputs": [
        {
          "name": "",
          "type": "address",
          "internalType": "address"
        }
      ],
      "outputs": [
        {
          "name": "isRegistered",
          "type": "bool",
          "internalType": "bool"
        },
        {
          "name": "isVerified",
          "type": "bool",
          "internalType": "bool"
        },
        {
          "name": "tokensLeft",
          "type": "uint256",
          "internalType": "uint256"
        },
        {
          "name": "lastScoreCheck",
          "type": "uint256",
          "internalType": "uint256"
        }
      ],
      "stateMutability": "view"
    },
    {
      "type": "function",
      "name": "votes",
      "inputs": [
        {
          "name": "",
          "type": "uint256",
          "internalType": "uint256"
        },
        {
          "name": "",
          "type": "address",
          "internalType": "address"
        }
      ],
      "outputs": [
        {
          "name": "votingPower",
          "type": "uint256",
          "internalType": "uint256"
        },
        {
          "name": "hasVoted",
          "type": "bool",
          "internalType": "bool"
        },
        {
          "name": "isVerified",
          "type": "bool",
          "internalType": "bool"
        },
        {
          "name": "timestamp",
          "type": "uint256",
          "internalType": "uint256"
        }
      ],
      "stateMutability": "view"
    },
    {
      "type": "event",
      "name": "OwnershipTransferred",
      "inputs": [
        {
          "name": "previousOwner",
          "type": "address",
          "indexed": true,
          "internalType": "address"
        },
        {
          "name": "newOwner",
          "type": "address",
          "indexed": true,
          "internalType": "address"
        }
      ],
      "anonymous": false
    },
    {
      "type": "event",
      "name": "PollCreated",
      "inputs": [
        {
          "name": "pollId",
          "type": "uint256",
          "indexed": true,
          "internalType": "uint256"
        },
        {
          "name": "name",
          "type": "string",
          "indexed": false,
          "internalType": "string"
        },
        {
          "name": "creator",
          "type": "address",
          "indexed": true,
          "internalType": "address"
        },
        {
          "name": "ipfsHash",
          "type": "string",
          "indexed": false,
          "internalType": "string"
        }
      ],
      "anonymous": false
    },
    {
      "type": "event",
      "name": "PollStatusChanged",
      "inputs": [
        {
          "name": "pollId",
          "type": "uint256",
          "indexed": true,
          "internalType": "uint256"
        },
        {
          "name": "isActive",
          "type": "bool",
          "indexed": false,
          "internalType": "bool"
        }
      ],
      "anonymous": false
    },
    {
      "type": "event",
      "name": "UserJoined",
      "inputs": [
        {
          "name": "user",
          "type": "address",
          "indexed": true,
          "internalType": "address"
        },
        {
          "name": "isVerified",
          "type": "bool",
          "indexed": false,
          "internalType": "bool"
        },
        {
          "name": "tokens",
          "type": "uint256",
          "indexed": false,
          "internalType": "uint256"
        }
      ],
      "anonymous": false
    },
    {
      "type": "event",
      "name": "UserVerificationUpdated",
      "inputs": [
        {
          "name": "user",
          "type": "address",
          "indexed": true,
          "internalType": "address"
        },
        {
          "name": "isVerified",
          "type": "bool",
          "indexed": false,
          "internalType": "bool"
        },
        {
          "name": "additionalTokens",
          "type": "uint256",
          "indexed": false,
          "internalType": "uint256"
        }
      ],
      "anonymous": false
    },
    {
      "type": "event",
      "name": "VoteCast",
      "inputs": [
        {
          "name": "user",
          "type": "address",
          "indexed": true,
          "internalType": "address"
        },
        {
          "name": "pollId",
          "type": "uint256",
          "indexed": true,
          "internalType": "uint256"
        },
        {
          "name": "votingPower",
          "type": "uint256",
          "indexed": false,
          "internalType": "uint256"
        },
        {
          "name": "isVerified",
          "type": "bool",
          "indexed": false,
          "internalType": "bool"
        },
        {
          "name": "cost",
          "type": "uint256",
          "indexed": false,
          "internalType": "uint256"
        }
      ],
      "anonymous": false
    },
    {
      "type": "event",
      "name": "VoteRemoved",
      "inputs": [
        {
          "name": "user",
          "type": "address",
          "indexed": true,
          "internalType": "address"
        },
        {
          "name": "pollId",
          "type": "uint256",
          "indexed": true,
          "internalType": "uint256"
        },
        {
          "name": "tokensReturned",
          "type": "uint256",
          "indexed": false,
          "internalType": "uint256"
        }
      ],
      "anonymous": false
    },
    {
      "type": "error",
      "name": "OwnableInvalidOwner",
      "inputs": [
        {
          "name": "owner",
          "type": "address",
          "internalType": "address"
        }
      ]
    },
    {
      "type": "error",
      "name": "OwnableUnauthorizedAccount",
      "inputs": [
        {
          "name": "account",
          "type": "address",
          "internalType": "address"
        }
      ]
    }
  ],
  "bytecode": {
    "object": "0x60a0604052346200060c57620026c3803803806200001d8162000610565b9283398101610140828203126200060c5781516001600160401b0381116200060c57816200004d91840162000636565b60208301519091906001600160401b0381116200060c57816200007291850162000636565b604084015190916001600160401b0382116200060c576200009591850162000636565b91606084015160808501519060a08601519260c08701519460e088015196620000c26101008a01620006a6565b986001600160a01b0390620000db9061012001620006a6565b16988915620005f4575f80546001600160a01b031981168c1782556040519b916001600160a01b03909116907f8be0079c531659141344cd1fd0a4f28419497f9722a3daafe3b4186f6b6457e09080a36001600160a01b0316988915620005b257506040516101008101906001600160401b03821181831017620003da57604091825284815260208101938452908101918252606081019485526080810195865260a0810196875260c0810197885260e0019788528251916001600160401b038311620003da576001928354948486811c96168015620005a7575b6020871014620003bb578190601f9687811162000552575b50602090878311600114620004ed575f92620004e1575b50505f19600383901b1c191690841b1783555b518051906001600160401b038211620003da57600254908482811c92168015620004d6575b6020831014620003bb57818684931162000480575b50602090868311600114620003fa575f92620003ee575b50505f19600383901b1c191690831b176002555b51805190926001600160401b038211620003da5760039384548481811c91168015620003cf575b6020821014620003bb5782811162000371575b5060209183116001146200030d579282939183925f9462000301575b50501b915f1990841b1c19161790555b51600455516005555160065551600755516008556080526040516120079081620006bc8239608051818181610bc3015281816111040152611adf0152f35b015192505f80620002b3565b90601f19831691855f528360205f20935f5b8782821062000357575050106200033f575b505050811b019055620002c3565b01515f1983861b60f8161c191690555f808062000331565b84860151875590950194602094850194879350016200031f565b855f5260205f208380860160051c82019260208710620003b1575b0160051c019085905b828110620003a557505062000297565b5f815501859062000395565b925081926200038c565b634e487b7160e01b5f52602260045260245ffd5b90607f169062000284565b634e487b7160e01b5f52604160045260245ffd5b015190505f8062000249565b60025f9081528694507f405787fa12a823e0f2b7631cc41b3ba8828b3321ca811111fa75cd3aa3bb5ace929190601f198516905b81811062000467575084116200044e575b505050811b016002556200025d565b01515f1960f88460031b161c191690555f80806200043f565b828401518555889690940193602093840193016200042e565b90915060025f5260205f208680850160051c82019260208610620004cc575b918791869594930160051c01915b828110620004bd57505062000232565b5f8155859450879101620004ad565b925081926200049f565b91607f16916200021d565b015190505f80620001e5565b90869350601f19831691845f5260205f20925f5b818110620005395750841162000520575b505050811b018355620001f8565b01515f1960f88460031b161c191690555f808062000512565b8284015185558996909401936020938401930162000501565b909150855f5260205f208780850160051c820192602086106200059d575b918891869594930160051c01915b8281106200058e575050620001ce565b5f81558594508891016200057e565b9250819262000570565b95607f1695620001b6565b62461bcd60e51b815260206004820152601760248201527f496e76616c69642070617373706f72742073636f7265720000000000000000006044820152606490fd5b604051631e4fbdf760e01b81525f6004820152602490fd5b5f80fd5b6040519190601f01601f191682016001600160401b03811183821017620003da57604052565b919080601f840112156200060c5782516001600160401b038111620003da576020906200066c601f8201601f1916830162000610565b928184528282870101116200060c575f5b818110620006925750825f9394955001015290565b85810183015184820184015282016200067d565b51906001600160a01b03821682036200060c5756fe6080806040526004361015610012575f80fd5b5f3560e01c9081630d524bc61461146b5750806312347294146113ba578063132972c4146110b0578063251e02d71461102357806329b8f44a14610f695780632c0a3f8914610d5b57806332b633fa14610bf25780634905e83114610bae57806367c897fe14610a1a578063715018a6146109c3578063793eb9c41461091f57806379502c551461088c5780638da5cb5b146108655780639207891d14610848578063a26dbf261461082b578063a87430ba146107ca578063d23254b41461074c578063de075be514610719578063e201201c146101865763f2fde38b146100f8575f80fd5b346101825760203660031901126101825761011161153f565b610119611964565b6001600160a01b0390811690811561016a575f54826bffffffffffffffffffffffff60a01b8216175f55167f8be0079c531659141344cd1fd0a4f28419497f9722a3daafe3b4186f6b6457e05f80a3005b604051631e4fbdf760e01b81525f6004820152602490fd5b5f80fd5b34610182576060366003190112610182576004356001600160401b038111610182576101b6903690600401611937565b906024356001600160401b038111610182576101d6903690600401611937565b90916044356001600160401b038111610182576101f7903690600401611937565b919092335f52600c60205260ff60405f205416156106e25785156106ad5782156106735761024f600e549561022b876119f0565b600e556040519261023b8461163e565b610246368a876119fe565b845236916119fe565b602082015261025f3684866119fe565b604082015233606082015260016080820152845f52600960205260405f2081518051906001600160401b03821161045d57819061029c8454611606565b601f8111610643575b50602090601f83116001146105db575f926105d0575b50508160011b915f199060031b1c19161781555b60208201518051906001600160401b03821161045d5781906102f46001850154611606565b601f811161059d575b50602090601f831160011461052f575f92610524575b50508160011b915f199060031b1c19161760018201555b604082015180516001600160401b03811161045d57600283019161034e8354611606565b601f81116104e9575b50602090601f831160011461047c5792826003936103c69796936080965f92610471575b50508160011b915f1990861b1c19161790555b60608401519101805492909301516001600160a81b03199092166001600160a01b03919091161790151560a01b60ff60a01b16179055565b6040519060408201958287106001600160401b0388111761045d5761045286947f0676a78d87504ca6f29e3cdcfad728f1570e9b2f9548165e6f90ce9204f55daf946020996040525f815260018a82015f8152885f52600a8c5260405f209251835551910155610443604051948594604086526040860191611a43565b908382038a8501523397611a43565b0390a3604051908152f35b634e487b7160e01b5f52604160045260245ffd5b015190508d8061037b565b90601f19831691845f5260205f20925f5b8181106104d15750936103c69796936080969360019383600398106104ba575b505050811b01905561038e565b01515f1983881b60f8161c191690558d80806104ad565b9293602060018192878601518155019501930161048d565b61051490845f5260205f20601f850160051c8101916020861061051a575b601f0160051c01906119da565b8a610357565b9091508190610507565b015190508980610313565b9250600184015f5260205f20905f935b601f1984168510610582576001945083601f1981161061056a575b505050811b01600182015561032a565b01515f1960f88460031b161c1916905589808061055a565b8181015183556020948501946001909301929091019061053f565b6105ca90600186015f5260205f20601f850160051c8101916020861061051a57601f0160051c01906119da565b8a6102fd565b0151905089806102bb565b9250835f5260205f20905f935b601f1984168510610628576001945083601f19811610610610575b505050811b0181556102cf565b01515f1960f88460031b161c19169055898080610603565b818101518355602094850194600190930192909101906105e8565b61066d90855f5260205f20601f850160051c8101916020861061051a57601f0160051c01906119da565b8a6102a5565b60405162461bcd60e51b815260206004820152601260248201527112541194c81a185cda081c995c5d5a5c995960721b6044820152606490fd5b60405162461bcd60e51b815260206004820152600d60248201526c13985b59481c995c5d5a5c9959609a1b6044820152606490fd5b60405162461bcd60e51b815260206004820152600f60248201526e135d5cdd081a9bda5b88199a5c9cdd608a1b6044820152606490fd5b34610182576020366003190112610182576004355f52600a6020526040805f206001815491015482519182526020820152f35b3461018257604036600319011261018257610765611529565b6004355f52600b60205260405f209060018060a01b03165f5260205260405f2080546107c66002600184015493015460405193849360ff808360081c1692169085909493926060926080830196835215156020830152151560408201520152565b0390f35b34610182576020366003190112610182576001600160a01b036107eb61153f565b165f52600c602052608060405f20805490600360018201549101549060ff604051938181161515855260081c161515602084015260408301526060820152f35b34610182575f366003190112610182576020600d54604051908152f35b34610182575f366003190112610182576020600e54604051908152f35b34610182575f366003190112610182575f546040516001600160a01b039091168152602090f35b34610182575f366003190112610182576108e56108a76116b1565b6108af61176a565b6108b7611801565b906004549160055460065490610901600754936108f3600854966040519a8b9a610100808d528c0190611555565b908a820360208c0152611555565b9088820360408a0152611555565b946060870152608086015260a085015260c084015260e08301520390f35b34610182576020366003190112610182576004355f52600960205261098660405f2061094a81611898565b9060ff6109a261095c60018401611898565b92610994600361096e60028401611898565b9201549460405197889760a0895260a0890190611555565b908782036020890152611555565b908582036040870152611555565b6001600160a01b038316606085015260a09290921c16151560808301520390f35b34610182575f366003190112610182576109db611964565b5f80546001600160a01b0319811682556001600160a01b03167f8be0079c531659141344cd1fd0a4f28419497f9722a3daafe3b4186f6b6457e08280a3005b34610182575f366003190112610182575f610140604051610a3a81611674565b6060815260606020820152606060408201528260608201528260808201528260a08201528260c08201528260e08201528261010082015282610120820152015260045460055460065460075460085460018060a01b035f541691600d5493600e549560405197610aa989611674565b610ab16116b1565b8952610abb61176a565b60208a0152610ac8611801565b60408a01526060890152608088015260a087015260c086015260e0850152610100840152610120830152610140820152604051809160208252610140610b50610b1f83516101606020870152610180860190611555565b610b3b602085015191601f199283888303016040890152611555565b90604085015190868303016060870152611555565b9160608101516080850152608081015160a085015260a081015160c085015260c081015160e085015260e081015161010085015260018060a01b03610100820151166101208501526101208101518285015201516101608301520390f35b34610182575f366003190112610182576040517f00000000000000000000000000000000000000000000000000000000000000006001600160a01b03168152602090f35b34610182575f36600319011261018257600e54610c0e816119b0565b90610c1c6040519283611690565b808252601f19610c2b826119b0565b015f5b818110610d445750505f5b818110610c9e5760408051602080825285518183018190525f93600582901b8401810192808901929185015b828710610c725785850386f35b909192938280610c8e600193603f198a82030186528851611593565b9601920196019592919092610c65565b80610d3f915f5260206009815260405f2090600a815260405f20916003810154610cf9600285549360018097015495610cef60405198610cdd8a611659565b610ce684611898565b8a528301611898565b9088015201611898565b60408501526001600160a01b038116606085015260a090811c60ff161515608085015283015260c0820152610d2e8286611fbd565b52610d398185611fbd565b506119f0565b610c39565b602090610d4f611a63565b82828701015201610c2e565b34610182576040366003190112610182576004356024908135600e54821015610f2e576103e891828211610ef357335f526020600c815260405f209360ff85541615610ec2576002850154101580610ea0575b610e6c57815f5260098152600360405f20015460ff8160a01c1615610e36576001600160a01b03163314610df35750610df19350610deb83611aa9565b50611c01565b005b6064906017866040519262461bcd60e51b845260048401528201527f43616e6e6f7420766f7465206f6e206f776e20706f6c6c0000000000000000006044820152fd5b60405162461bcd60e51b815260048101839052600f818801526e506f6c6c206e6f742061637469766560881b6044820152606490fd5b606490600e866040519262461bcd60e51b845260048401528201526d546f6f206d616e7920766f74657360901b6044820152fd5b50815f52600b815260405f20335f52815260ff600160405f2001541615610dae565b60405162461bcd60e51b815260048101839052600a8188015269139bdd081a9bda5b995960b21b6044820152606490fd5b60405162461bcd60e51b8152602060048201526014818601527324b73b30b634b2103b37ba34b733903837bbb2b960611b6044820152606490fd5b60405162461bcd60e51b8152602060048201526013602482015272141bdb1b08191bd95cc81b9bdd08195e1a5cdd606a1b6044820152606490fd5b346101825760208060031936011261018257600435610f86611a63565b50600e54811015610f2e575f526009815260405f2090600a815260405f2060038301549060ff6001825492015492610fe7600260405197610fc689611659565b610fcf81611898565b8952610fdd60018201611898565b888a015201611898565b604087015260018060a01b038116606087015260a01c161515608085015260a084015260c08301526107c6604051928284938452830190611593565b346101825760203660031901126101825760043561103f611964565b600e54811015610f2e575f818152600960209081526040909120600301805460ff60a01b19811660a091821c60ff9081161590921b60ff60a01b161782557fb7b8c0761d078843a3e84d05266ab3eca7a488cd293cce2eac1441c9287d4b5392915460a01c166040519015158152a2005b34610182575f36600319011261018257335f526020600c815260ff60405f20541661138557600119600d54101561134957600854421161131557604051630d47875d60e41b815233600482015281816024817f00000000000000000000000000000000000000000000000000000000000000006001600160a01b03165afa90811561130a575f916112dd575b5060065481106112a057600754118015919061129757600554905b6040516001600160401b03908281018281118282101761045d576040525f8152604051916111848361163e565b6001908184528484019287845260408501878152606086019182526111e16080870195428752335f52600c895260405f209751151560ff80198a54169116178855511515879061ff00825491151560081b169061ff001916179055565b5183860155600285019051805192831161045d57600160401b831161045d578690825484845580851061127c575b5001905f52855f205f5b83811061126b57505050505060039051910155611237600d546119f0565b600d556040519283528201527f96d60ca9fe9fc21c942d5995e6de2db040128659708616614baa0e4feaf5d7d960403392a2005b825182820155918701918401611219565b61129190845f5285845f2091820191016119da565b8a61120f565b60045490611157565b60405162461bcd60e51b815260048101839052601560248201527429b1b7b932903a37b7903637bb903a37903537b4b760591b6044820152606490fd5b90508181813d8311611303575b6112f48183611690565b8101031261018257518261113c565b503d6112ea565b6040513d5f823e3d90fd5b6064906040519062461bcd60e51b82526004820152600d60248201526c141c9bda9958dd08195b991959609a1b6044820152fd5b6064906040519062461bcd60e51b825260048201526015602482015274546f6f206d616e79207061727469636970616e747360581b6044820152fd5b6064906040519062461bcd60e51b82526004820152600e60248201526d105b1c9958591e481a9bda5b995960921b6044820152fd5b3461018257602080600319360112610182576001600160a01b036113dc61153f565b165f52600c8152600260405f2001604051908183825491828152019081925f52845f20905f5b8682821061145757868661141882880383611690565b60405192839281840190828552518091526040840192915f5b82811061144057505050500390f35b835185528695509381019392810192600101611431565b835485529093019260019283019201611402565b3461018257604036600319011261018257600435611487611529565b91600e548210156114f157505f52600b60205260405f209060018060a01b03165f5260205260405f2080546107c66002600184015493015460405193849360ff808360081c1692169085909493926060926080830196835215156020830152151560408201520152565b62461bcd60e51b8152602060048201526013602482015272141bdb1b08191bd95cc81b9bdd08195e1a5cdd606a1b6044820152606490fd5b602435906001600160a01b038216820361018257565b600435906001600160a01b038216820361018257565b91908251928382525f5b84811061157f575050825f602080949584010152601f8019910116010190565b60208183018101518483018201520161155f565b9060c0806115d46115c26115b0865160e0875260e0870190611555565b60208701518682036020880152611555565b60408601518582036040870152611555565b6060808601516001600160a01b03169085015260808086015115159085015260a0808601519085015293015191015290565b90600182811c92168015611634575b602083101461162057565b634e487b7160e01b5f52602260045260245ffd5b91607f1691611615565b60a081019081106001600160401b0382111761045d57604052565b60e081019081106001600160401b0382111761045d57604052565b61016081019081106001600160401b0382111761045d57604052565b90601f801991011681019081106001600160401b0382111761045d57604052565b604051905f826001918254926116c684611606565b8084529381811690811561174857506001146116ec575b506116ea92500383611690565b565b5f81815291507fb10e2d527612073b26eecdfd717e6a320cf44b4afac2b0732d9fcbe2b7fa0cf65b84831061172d57506116ea93505081016020015f6116dd565b81935090816020925483858a01015201910190918592611714565b9050602092506116ea94915060ff191682840152151560051b8201015f6116dd565b604051905f826002549161177d83611606565b8083529260019081811690811561174857506001146117a357506116ea92500383611690565b60025f90815291507f405787fa12a823e0f2b7631cc41b3ba8828b3321ca811111fa75cd3aa3bb5ace5b8483106117e657506116ea93505081016020015f6116dd565b81935090816020925483858a010152019101909185926117cd565b604051905f826003549161181483611606565b80835292600190818116908115611748575060011461183a57506116ea92500383611690565b60035f90815291507fc2575a0e9e593c00f959f8c92f12db2869c3395a3b0502d05e2516446f71f85b5b84831061187d57506116ea93505081016020015f6116dd565b81935090816020925483858a01015201910190918592611864565b9060405191825f8254926118ab84611606565b9081845260019485811690815f1461191457506001146118d4575b50506116ea92500383611690565b909391505f52602090815f20935f915b8183106118fc5750506116ea93508201015f806118c6565b855488840185015294850194879450918301916118e4565b9150506116ea94506020925060ff191682840152151560051b8201015f806118c6565b9181601f84011215610182578235916001600160401b038311610182576020838186019501011161018257565b5f546001600160a01b0316330361197757565b60405163118cdaa760e01b8152336004820152602490fd5b9190820391821161199c57565b634e487b7160e01b5f52601160045260245ffd5b6001600160401b03811161045d5760051b60200190565b8181029291811591840414171561199c57565b8181106119e5575050565b5f81556001016119da565b5f19811461199c5760010190565b9291926001600160401b03821161045d5760405191611a27601f8201601f191660200184611690565b829481845281830111610182578281602093845f960137010152565b908060209392818452848401375f828201840152601f01601f1916010190565b60405190611a7082611659565b5f60c0836060815260606020820152606060408201528260608201528260808201528260a08201520152565b9190820180921161199c57565b805460ff8160081c161580611bbe575b611ac4575b50505f90565b604051630d47875d60e41b81523360048201526020816024817f00000000000000000000000000000000000000000000000000000000000000006001600160a01b03165afa90811561130a575f91611b8a575b5042600384015560075411611abe576101009061ff0019161781556001611b436005546004549061198f565b9101611b50828254611a9c565b9055604051906001825260208201527fb342d6785b1365946eaa7a51774c26bdf52a779d0a98f688ec1b00cd5ef0eeb160403392a2600190565b906020823d8211611bb6575b81611ba360209383611690565b81010312611bb35750515f611b17565b80fd5b3d9150611b96565b506003820154610e10810180911161199c57421015611ab9565b8054821015611bed575f5260205f2001905f90565b634e487b7160e01b5f52603260045260245ffd5b915f908382526020600b8152604091828420338552825282842090868552600a83528385206001958684019384549460ff8681809816611dfa575b5050845460081c8616611dea57888a03611d9b57885b808601938a855410611d61578783541615611cf3575b5090611c98918b845560ff1982541617815586865460081c1661ff00825491151560081b169061ff001916179055565b600242910155611ca987825461198f565b9055611cb6878254611a9c565b90555460081c1682519485521515908401528201527fe89c99a0264d21c2ad18316d6e7b3aa31414c12f31b085afdeeacaa7e69f80b660603392a3565b818601611d0081546119f0565b905560028701805491600160401b831015611d4d57508d611d2e83611d469386611c98989796018155611bd8565b90919082549060031b91821b915f19901b1916179055565b9091611c68565b634e487b7160e01b81526041600452602490fd5b895162461bcd60e51b8152600481018a90526013602482015272496e73756666696369656e7420746f6b656e7360681b6044820152606490fd5b875162461bcd60e51b815260048101889052602260248201527f526567756c61722075736572732063616e206f6e6c792063617374203120766f604482015261746560f01b6064820152608490fd5b611df48a806119c7565b98611c52565b60081c1615611fb757611e0e8254806119c7565b611e1c8a8701918254611a9c565b9055611e2a8254855461198f565b84558915611e3957855f611c3c565b50509493959796508701805480158015611f92575b5050506002810184885b611ec1575b5050909192600286978296978352600b88528583203384528852828681209181835582015501555460081c16928151938385521515908401528201527fe89c99a0264d21c2ad18316d6e7b3aa31414c12f31b085afdeeacaa7e69f80b660603392a3565b815480821015611f8c578890611ed78385611bd8565b929054600393841b1c14611ef957505090611ef289926119f0565b9091611e58565b9092915f9a9495969798999a1991828101908111611f785790611d2e611f22611f2f9386611bd8565b905490871b1c9185611bd8565b81548015611f64579181600294928a96940192611f4c8484611bd8565b81939154921b1b191690555597969594939291611e5d565b634e487b7160e01b89526031600452602489fd5b634e487b7160e01b8a52601160045260248afd5b50611e5d565b611fa3575f190190555f8080611e4e565b634e487b7160e01b86526011600452602486fd5b88611e0e565b8051821015611bed5760209160051b01019056fea2646970667358221220310f5a27f4cf0f8b0fe37feef6141130aded17ecb3ff43512c6837778393970964736f6c63430008140033",
    "linkReferences": {}
  },
  "methodIdentifiers": {
    "castVote(uint256,uint256)": "2c0a3f89",
    "config()": "79502c55",
    "createPoll(string,string,string)": "e201201c",
    "getAllPolls()": "32b633fa",
    "getPollInfo(uint256)": "29b8f44a",
    "getProjectInfo()": "67c897fe",
    "getUserVotedPolls(address)": "12347294",
    "getVoteInfo(uint256,address)": "0d524bc6",
    "joinProject()": "132972c4",
    "owner()": "8da5cb5b",
    "passportScorer()": "4905e831",
    "pollCount()": "9207891d",
    "pollsCore(uint256)": "793eb9c4",
    "pollsStats(uint256)": "de075be5",
    "renounceOwnership()": "715018a6",
    "togglePollStatus(uint256)": "251e02d7",
    "totalParticipants()": "a26dbf26",
    "transferOwnership(address)": "f2fde38b",
    "users(address)": "a87430ba",
    "votes(uint256,address)": "d23254b4"
  },
  "id": 22
}