{
  "abi": [
    {
      "type": "constructor",
      "inputs": [
        {
          "name": "_name",
          "type": "string",
          "internalType": "string"
        },
        {
          "name": "_description",
          "type": "string",
          "internalType": "string"
        },
        {
          "name": "_ipfsHash",
          "type": "string",
          "internalType": "string"
        },
        {
          "name": "_tokensPerUser",
          "type": "uint256",
          "internalType": "uint256"
        },
        {
          "name": "_tokensPerVerifiedUser",
          "type": "uint256",
          "internalType": "uint256"
        },
        {
          "name": "_minScoreToJoin",
          "type": "uint256",
          "internalType": "uint256"
        },
        {
          "name": "_minScoreToVerify",
          "type": "uint256",
          "internalType": "uint256"
        },
        {
          "name": "_endTime",
          "type": "uint256",
          "internalType": "uint256"
        },
        {
          "name": "_passportScorer",
          "type": "address",
          "internalType": "address"
        },
        {
          "name": "_admin",
          "type": "address",
          "internalType": "address"
        }
      ],
      "stateMutability": "nonpayable"
    },
    {
      "type": "function",
      "name": "castVote",
      "inputs": [
        {
          "name": "pollId",
          "type": "uint256",
          "internalType": "uint256"
        },
        {
          "name": "votingPower",
          "type": "uint256",
          "internalType": "uint256"
        }
      ],
      "outputs": [],
      "stateMutability": "nonpayable"
    },
    {
      "type": "function",
      "name": "config",
      "inputs": [],
      "outputs": [
        {
          "name": "name",
          "type": "string",
          "internalType": "string"
        },
        {
          "name": "description",
          "type": "string",
          "internalType": "string"
        },
        {
          "name": "ipfsHash",
          "type": "string",
          "internalType": "string"
        },
        {
          "name": "tokensPerUser",
          "type": "uint256",
          "internalType": "uint256"
        },
        {
          "name": "tokensPerVerifiedUser",
          "type": "uint256",
          "internalType": "uint256"
        },
        {
          "name": "minScoreToJoin",
          "type": "uint256",
          "internalType": "uint256"
        },
        {
          "name": "minScoreToVerify",
          "type": "uint256",
          "internalType": "uint256"
        },
        {
          "name": "endTime",
          "type": "uint256",
          "internalType": "uint256"
        }
      ],
      "stateMutability": "view"
    },
    {
      "type": "function",
      "name": "createPoll",
      "inputs": [
        {
          "name": "_name",
          "type": "string",
          "internalType": "string"
        },
        {
          "name": "_description",
          "type": "string",
          "internalType": "string"
        },
        {
          "name": "_ipfsHash",
          "type": "string",
          "internalType": "string"
        }
      ],
      "outputs": [
        {
          "name": "pollId",
          "type": "uint256",
          "internalType": "uint256"
        }
      ],
      "stateMutability": "nonpayable"
    },
    {
      "type": "function",
      "name": "getAllPolls",
      "inputs": [],
      "outputs": [
        {
          "name": "",
          "type": "tuple[]",
          "internalType": "struct QuadraticVoting.PollView[]",
          "components": [
            {
              "name": "name",
              "type": "string",
              "internalType": "string"
            },
            {
              "name": "description",
              "type": "string",
              "internalType": "string"
            },
            {
              "name": "ipfsHash",
              "type": "string",
              "internalType": "string"
            },
            {
              "name": "creator",
              "type": "address",
              "internalType": "address"
            },
            {
              "name": "isActive",
              "type": "bool",
              "internalType": "bool"
            },
            {
              "name": "totalVotes",
              "type": "uint256",
              "internalType": "uint256"
            },
            {
              "name": "totalParticipants",
              "type": "uint256",
              "internalType": "uint256"
            }
          ]
        }
      ],
      "stateMutability": "view"
    },
    {
      "type": "function",
      "name": "getPassportScore",
      "inputs": [
        {
          "name": "user",
          "type": "address",
          "internalType": "address"
        }
      ],
      "outputs": [
        {
          "name": "",
          "type": "uint256",
          "internalType": "uint256"
        }
      ],
      "stateMutability": "view"
    },
    {
      "type": "function",
      "name": "getPollInfo",
      "inputs": [
        {
          "name": "pollId",
          "type": "uint256",
          "internalType": "uint256"
        }
      ],
      "outputs": [
        {
          "name": "",
          "type": "tuple",
          "internalType": "struct QuadraticVoting.PollView",
          "components": [
            {
              "name": "name",
              "type": "string",
              "internalType": "string"
            },
            {
              "name": "description",
              "type": "string",
              "internalType": "string"
            },
            {
              "name": "ipfsHash",
              "type": "string",
              "internalType": "string"
            },
            {
              "name": "creator",
              "type": "address",
              "internalType": "address"
            },
            {
              "name": "isActive",
              "type": "bool",
              "internalType": "bool"
            },
            {
              "name": "totalVotes",
              "type": "uint256",
              "internalType": "uint256"
            },
            {
              "name": "totalParticipants",
              "type": "uint256",
              "internalType": "uint256"
            }
          ]
        }
      ],
      "stateMutability": "view"
    },
    {
      "type": "function",
      "name": "getProjectInfo",
      "inputs": [],
      "outputs": [
        {
          "name": "",
          "type": "tuple",
          "internalType": "struct QuadraticVoting.ProjectDetails",
          "components": [
            {
              "name": "name",
              "type": "string",
              "internalType": "string"
            },
            {
              "name": "description",
              "type": "string",
              "internalType": "string"
            },
            {
              "name": "ipfsHash",
              "type": "string",
              "internalType": "string"
            },
            {
              "name": "tokensPerUser",
              "type": "uint256",
              "internalType": "uint256"
            },
            {
              "name": "tokensPerVerifiedUser",
              "type": "uint256",
              "internalType": "uint256"
            },
            {
              "name": "minScoreToJoin",
              "type": "uint256",
              "internalType": "uint256"
            },
            {
              "name": "minScoreToVerify",
              "type": "uint256",
              "internalType": "uint256"
            },
            {
              "name": "endTime",
              "type": "uint256",
              "internalType": "uint256"
            },
            {
              "name": "owner",
              "type": "address",
              "internalType": "address"
            },
            {
              "name": "totalParticipants",
              "type": "uint256",
              "internalType": "uint256"
            },
            {
              "name": "totalPolls",
              "type": "uint256",
              "internalType": "uint256"
            }
          ]
        }
      ],
      "stateMutability": "view"
    },
    {
      "type": "function",
      "name": "getUserInfo",
      "inputs": [
        {
          "name": "user",
          "type": "address",
          "internalType": "address"
        }
      ],
      "outputs": [
        {
          "name": "",
          "type": "tuple",
          "internalType": "struct QuadraticVoting.UserInfoView",
          "components": [
            {
              "name": "isRegistered",
              "type": "bool",
              "internalType": "bool"
            },
            {
              "name": "isVerified",
              "type": "bool",
              "internalType": "bool"
            },
            {
              "name": "tokensLeft",
              "type": "uint256",
              "internalType": "uint256"
            },
            {
              "name": "lastScoreCheck",
              "type": "uint256",
              "internalType": "uint256"
            },
            {
              "name": "passportScore",
              "type": "uint256",
              "internalType": "uint256"
            },
            {
              "name": "totalVotesCast",
              "type": "uint256",
              "internalType": "uint256"
            }
          ]
        }
      ],
      "stateMutability": "view"
    },
    {
      "type": "function",
      "name": "getUserVotedPolls",
      "inputs": [
        {
          "name": "user",
          "type": "address",
          "internalType": "address"
        }
      ],
      "outputs": [
        {
          "name": "",
          "type": "uint256[]",
          "internalType": "uint256[]"
        }
      ],
      "stateMutability": "view"
    },
    {
      "type": "function",
      "name": "getVoteInfo",
      "inputs": [
        {
          "name": "pollId",
          "type": "uint256",
          "internalType": "uint256"
        },
        {
          "name": "voter",
          "type": "address",
          "internalType": "address"
        }
      ],
      "outputs": [
        {
          "name": "votingPower",
          "type": "uint256",
          "internalType": "uint256"
        },
        {
          "name": "hasVoted",
          "type": "bool",
          "internalType": "bool"
        },
        {
          "name": "isVerified",
          "type": "bool",
          "internalType": "bool"
        },
        {
          "name": "timestamp",
          "type": "uint256",
          "internalType": "uint256"
        }
      ],
      "stateMutability": "view"
    },
    {
      "type": "function",
      "name": "joinProject",
      "inputs": [],
      "outputs": [],
      "stateMutability": "nonpayable"
    },
    {
      "type": "function",
      "name": "owner",
      "inputs": [],
      "outputs": [
        {
          "name": "",
          "type": "address",
          "internalType": "address"
        }
      ],
      "stateMutability": "view"
    },
    {
      "type": "function",
      "name": "passportScorer",
      "inputs": [],
      "outputs": [
        {
          "name": "",
          "type": "address",
          "internalType": "contract IGitcoinPassport"
        }
      ],
      "stateMutability": "view"
    },
    {
      "type": "function",
      "name": "pollCount",
      "inputs": [],
      "outputs": [
        {
          "name": "",
          "type": "uint256",
          "internalType": "uint256"
        }
      ],
      "stateMutability": "view"
    },
    {
      "type": "function",
      "name": "pollsCore",
      "inputs": [
        {
          "name": "",
          "type": "uint256",
          "internalType": "uint256"
        }
      ],
      "outputs": [
        {
          "name": "name",
          "type": "string",
          "internalType": "string"
        },
        {
          "name": "description",
          "type": "string",
          "internalType": "string"
        },
        {
          "name": "ipfsHash",
          "type": "string",
          "internalType": "string"
        },
        {
          "name": "creator",
          "type": "address",
          "internalType": "address"
        },
        {
          "name": "isActive",
          "type": "bool",
          "internalType": "bool"
        }
      ],
      "stateMutability": "view"
    },
    {
      "type": "function",
      "name": "pollsStats",
      "inputs": [
        {
          "name": "",
          "type": "uint256",
          "internalType": "uint256"
        }
      ],
      "outputs": [
        {
          "name": "totalVotes",
          "type": "uint256",
          "internalType": "uint256"
        },
        {
          "name": "totalParticipants",
          "type": "uint256",
          "internalType": "uint256"
        }
      ],
      "stateMutability": "view"
    },
    {
      "type": "function",
      "name": "renounceOwnership",
      "inputs": [],
      "outputs": [],
      "stateMutability": "nonpayable"
    },
    {
      "type": "function",
      "name": "togglePollStatus",
      "inputs": [
        {
          "name": "pollId",
          "type": "uint256",
          "internalType": "uint256"
        }
      ],
      "outputs": [],
      "stateMutability": "nonpayable"
    },
    {
      "type": "function",
      "name": "totalParticipants",
      "inputs": [],
      "outputs": [
        {
          "name": "",
          "type": "uint256",
          "internalType": "uint256"
        }
      ],
      "stateMutability": "view"
    },
    {
      "type": "function",
      "name": "transferOwnership",
      "inputs": [
        {
          "name": "newOwner",
          "type": "address",
          "internalType": "address"
        }
      ],
      "outputs": [],
      "stateMutability": "nonpayable"
    },
    {
      "type": "function",
      "name": "users",
      "inputs": [
        {
          "name": "",
          "type": "address",
          "internalType": "address"
        }
      ],
      "outputs": [
        {
          "name": "isRegistered",
          "type": "bool",
          "internalType": "bool"
        },
        {
          "name": "isVerified",
          "type": "bool",
          "internalType": "bool"
        },
        {
          "name": "tokensLeft",
          "type": "uint256",
          "internalType": "uint256"
        },
        {
          "name": "lastScoreCheck",
          "type": "uint256",
          "internalType": "uint256"
        }
      ],
      "stateMutability": "view"
    },
    {
      "type": "function",
      "name": "votes",
      "inputs": [
        {
          "name": "",
          "type": "uint256",
          "internalType": "uint256"
        },
        {
          "name": "",
          "type": "address",
          "internalType": "address"
        }
      ],
      "outputs": [
        {
          "name": "votingPower",
          "type": "uint256",
          "internalType": "uint256"
        },
        {
          "name": "hasVoted",
          "type": "bool",
          "internalType": "bool"
        },
        {
          "name": "isVerified",
          "type": "bool",
          "internalType": "bool"
        },
        {
          "name": "timestamp",
          "type": "uint256",
          "internalType": "uint256"
        }
      ],
      "stateMutability": "view"
    },
    {
      "type": "event",
      "name": "OwnershipTransferred",
      "inputs": [
        {
          "name": "previousOwner",
          "type": "address",
          "indexed": true,
          "internalType": "address"
        },
        {
          "name": "newOwner",
          "type": "address",
          "indexed": true,
          "internalType": "address"
        }
      ],
      "anonymous": false
    },
    {
      "type": "event",
      "name": "PollCreated",
      "inputs": [
        {
          "name": "pollId",
          "type": "uint256",
          "indexed": true,
          "internalType": "uint256"
        },
        {
          "name": "name",
          "type": "string",
          "indexed": false,
          "internalType": "string"
        },
        {
          "name": "creator",
          "type": "address",
          "indexed": true,
          "internalType": "address"
        },
        {
          "name": "ipfsHash",
          "type": "string",
          "indexed": false,
          "internalType": "string"
        }
      ],
      "anonymous": false
    },
    {
      "type": "event",
      "name": "PollStatusChanged",
      "inputs": [
        {
          "name": "pollId",
          "type": "uint256",
          "indexed": true,
          "internalType": "uint256"
        },
        {
          "name": "isActive",
          "type": "bool",
          "indexed": false,
          "internalType": "bool"
        }
      ],
      "anonymous": false
    },
    {
      "type": "event",
      "name": "UserJoined",
      "inputs": [
        {
          "name": "user",
          "type": "address",
          "indexed": true,
          "internalType": "address"
        },
        {
          "name": "isVerified",
          "type": "bool",
          "indexed": false,
          "internalType": "bool"
        },
        {
          "name": "tokens",
          "type": "uint256",
          "indexed": false,
          "internalType": "uint256"
        }
      ],
      "anonymous": false
    },
    {
      "type": "event",
      "name": "UserVerificationUpdated",
      "inputs": [
        {
          "name": "user",
          "type": "address",
          "indexed": true,
          "internalType": "address"
        },
        {
          "name": "isVerified",
          "type": "bool",
          "indexed": false,
          "internalType": "bool"
        },
        {
          "name": "additionalTokens",
          "type": "uint256",
          "indexed": false,
          "internalType": "uint256"
        }
      ],
      "anonymous": false
    },
    {
      "type": "event",
      "name": "VoteCast",
      "inputs": [
        {
          "name": "user",
          "type": "address",
          "indexed": true,
          "internalType": "address"
        },
        {
          "name": "pollId",
          "type": "uint256",
          "indexed": true,
          "internalType": "uint256"
        },
        {
          "name": "votingPower",
          "type": "uint256",
          "indexed": false,
          "internalType": "uint256"
        },
        {
          "name": "isVerified",
          "type": "bool",
          "indexed": false,
          "internalType": "bool"
        },
        {
          "name": "cost",
          "type": "uint256",
          "indexed": false,
          "internalType": "uint256"
        }
      ],
      "anonymous": false
    },
    {
      "type": "event",
      "name": "VoteRemoved",
      "inputs": [
        {
          "name": "user",
          "type": "address",
          "indexed": true,
          "internalType": "address"
        },
        {
          "name": "pollId",
          "type": "uint256",
          "indexed": true,
          "internalType": "uint256"
        },
        {
          "name": "tokensReturned",
          "type": "uint256",
          "indexed": false,
          "internalType": "uint256"
        }
      ],
      "anonymous": false
    },
    {
      "type": "error",
      "name": "OwnableInvalidOwner",
      "inputs": [
        {
          "name": "owner",
          "type": "address",
          "internalType": "address"
        }
      ]
    },
    {
      "type": "error",
      "name": "OwnableUnauthorizedAccount",
      "inputs": [
        {
          "name": "account",
          "type": "address",
          "internalType": "address"
        }
      ]
    }
  ],
  "bytecode": {
    "object": "0x60a0604052346200061a576200297b803803806200001d816200061e565b9283398101610140828203126200061a5781516001600160401b0381116200061a57816200004d91840162000644565b60208301519091906001600160401b0381116200061a57816200007291850162000644565b604084015190916001600160401b0382116200061a576200009591850162000644565b91606084015160808501519060a08601519260c08701519460e088015196620000c26101008a01620006b4565b986001600160a01b0390620000db9061012001620006b4565b1698891562000602575f80546001600160a01b031981168c1782556040519b916001600160a01b03909116907f8be0079c531659141344cd1fd0a4f28419497f9722a3daafe3b4186f6b6457e09080a36001600160a01b0316988915620005c057506040516101008101906001600160401b03821181831017620003e857604091825284815260208101938452908101918252606081019485526080810195865260a0810196875260c0810197885260e0019788528251916001600160401b038311620003e8576001928354948486811c96168015620005b5575b6020871014620003c9578190601f9687811162000560575b50602090878311600114620004fb575f92620004ef575b50505f19600383901b1c191690841b1783555b518051906001600160401b038211620003e857600254908482811c92168015620004e4575b6020831014620003c95781868493116200048e575b5060209086831160011462000408575f92620003fc575b50505f19600383901b1c191690831b176002555b51805190926001600160401b038211620003e85760039384548481811c91168015620003dd575b6020821014620003c9578281116200037f575b5060209183116001146200031b579282939183925f946200030f575b50501b915f1990841b1c19161790555b51600455516005555160065551600755516008556080526040516122b19081620006ca8239608051818181610a7101528181610cee01528181610e5d0152818161139e0152611d500152f35b015192505f80620002b3565b90601f19831691855f528360205f20935f5b8782821062000365575050106200034d575b505050811b019055620002c3565b01515f1983861b60f8161c191690555f80806200033f565b84860151875590950194602094850194879350016200032d565b855f5260205f208380860160051c82019260208710620003bf575b0160051c019085905b828110620003b357505062000297565b5f8155018590620003a3565b925081926200039a565b634e487b7160e01b5f52602260045260245ffd5b90607f169062000284565b634e487b7160e01b5f52604160045260245ffd5b015190505f8062000249565b60025f9081528694507f405787fa12a823e0f2b7631cc41b3ba8828b3321ca811111fa75cd3aa3bb5ace929190601f198516905b81811062000475575084116200045c575b505050811b016002556200025d565b01515f1960f88460031b161c191690555f80806200044d565b828401518555889690940193602093840193016200043c565b90915060025f5260205f208680850160051c82019260208610620004da575b918791869594930160051c01915b828110620004cb57505062000232565b5f8155859450879101620004bb565b92508192620004ad565b91607f16916200021d565b015190505f80620001e5565b90869350601f19831691845f5260205f20925f5b81811062000547575084116200052e575b505050811b018355620001f8565b01515f1960f88460031b161c191690555f808062000520565b828401518555899690940193602093840193016200050f565b909150855f5260205f208780850160051c82019260208610620005ab575b918891869594930160051c01915b8281106200059c575050620001ce565b5f81558594508891016200058c565b925081926200057e565b95607f1695620001b6565b62461bcd60e51b815260206004820152601760248201527f496e76616c69642070617373706f72742073636f7265720000000000000000006044820152606490fd5b604051631e4fbdf760e01b81525f6004820152602490fd5b5f80fd5b6040519190601f01601f191682016001600160401b03811183821017620003e857604052565b919080601f840112156200061a5782516001600160401b038111620003e8576020906200067a601f8201601f191683016200061e565b928184528282870101116200061a575f5b818110620006a05750825f9394955001015290565b85810183015184820184015282016200068b565b51906001600160a01b03821682036200061a5756fe6080806040526004361015610012575f80fd5b5f3560e01c9081630d524bc6146116fa575080631234729414611649578063132972c41461134a578063251e02d7146112bd57806329b8f44a146112035780632c0a3f8914610ff557806332b633fa14610e8c5780634905e83114610e485780636386c1c714610c7657806367c897fe14610ae25780636ae25df914610a30578063715018a6146109d9578063793eb9c41461093557806379502c55146108a25780638da5cb5b1461087b5780639207891d1461085e578063a26dbf2614610841578063a87430ba146107e0578063d23254b414610762578063de075be51461072f578063e201201c1461019c5763f2fde38b1461010e575f80fd5b34610198576020366003190112610198576101276117ce565b61012f611c0e565b6001600160a01b03908116908115610180575f54826bffffffffffffffffffffffff60a01b8216175f55167f8be0079c531659141344cd1fd0a4f28419497f9722a3daafe3b4186f6b6457e05f80a3005b604051631e4fbdf760e01b81525f6004820152602490fd5b5f80fd5b34610198576060366003190112610198576004356001600160401b038111610198576101cc903690600401611be1565b906024356001600160401b038111610198576101ec903690600401611be1565b90916044356001600160401b0381116101985761020d903690600401611be1565b919092335f52600c60205260ff60405f205416156106f85785156106c357821561068957610265600e549561024187611c9a565b600e5560405192610251846118cd565b61025c368a87611ca8565b84523691611ca8565b6020820152610275368486611ca8565b604082015233606082015260016080820152845f52600960205260405f2081518051906001600160401b0382116104735781906102b28454611895565b601f8111610659575b50602090601f83116001146105f1575f926105e6575b50508160011b915f199060031b1c19161781555b60208201518051906001600160401b03821161047357819061030a6001850154611895565b601f81116105b3575b50602090601f8311600114610545575f9261053a575b50508160011b915f199060031b1c19161760018201555b604082015180516001600160401b0381116104735760028301916103648354611895565b601f81116104ff575b50602090601f83116001146104925792826003936103dc9796936080965f92610487575b50508160011b915f1990861b1c19161790555b60608401519101805492909301516001600160a81b03199092166001600160a01b03919091161790151560a01b60ff60a01b16179055565b6040519060408201958287106001600160401b038811176104735761046886947f0676a78d87504ca6f29e3cdcfad728f1570e9b2f9548165e6f90ce9204f55daf946020996040525f815260018a82015f8152885f52600a8c5260405f209251835551910155610459604051948594604086526040860191611ced565b908382038a8501523397611ced565b0390a3604051908152f35b634e487b7160e01b5f52604160045260245ffd5b015190508d80610391565b90601f19831691845f5260205f20925f5b8181106104e75750936103dc9796936080969360019383600398106104d0575b505050811b0190556103a4565b01515f1983881b60f8161c191690558d80806104c3565b929360206001819287860151815501950193016104a3565b61052a90845f5260205f20601f850160051c81019160208610610530575b601f0160051c0190611c84565b8a61036d565b909150819061051d565b015190508980610329565b9250600184015f5260205f20905f935b601f1984168510610598576001945083601f19811610610580575b505050811b016001820155610340565b01515f1960f88460031b161c19169055898080610570565b81810151835560209485019460019093019290910190610555565b6105e090600186015f5260205f20601f850160051c8101916020861061053057601f0160051c0190611c84565b8a610313565b0151905089806102d1565b9250835f5260205f20905f935b601f198416851061063e576001945083601f19811610610626575b505050811b0181556102e5565b01515f1960f88460031b161c19169055898080610619565b818101518355602094850194600190930192909101906105fe565b61068390855f5260205f20601f850160051c8101916020861061053057601f0160051c0190611c84565b8a6102bb565b60405162461bcd60e51b815260206004820152601260248201527112541194c81a185cda081c995c5d5a5c995960721b6044820152606490fd5b60405162461bcd60e51b815260206004820152600d60248201526c13985b59481c995c5d5a5c9959609a1b6044820152606490fd5b60405162461bcd60e51b815260206004820152600f60248201526e135d5cdd081a9bda5b88199a5c9cdd608a1b6044820152606490fd5b34610198576020366003190112610198576004355f52600a6020526040805f206001815491015482519182526020820152f35b346101985760403660031901126101985761077b6117b8565b6004355f52600b60205260405f209060018060a01b03165f5260205260405f2080546107dc6002600184015493015460405193849360ff808360081c1692169085909493926060926080830196835215156020830152151560408201520152565b0390f35b34610198576020366003190112610198576001600160a01b036108016117ce565b165f52600c602052608060405f20805490600360018201549101549060ff604051938181161515855260081c161515602084015260408301526060820152f35b34610198575f366003190112610198576020600d54604051908152f35b34610198575f366003190112610198576020600e54604051908152f35b34610198575f366003190112610198575f546040516001600160a01b039091168152602090f35b34610198575f366003190112610198576108fb6108bd61195b565b6108c5611a14565b6108cd611aab565b90600454916005546006549061091760075493610909600854966040519a8b9a610100808d528c01906117e4565b908a820360208c01526117e4565b9088820360408a01526117e4565b946060870152608086015260a085015260c084015260e08301520390f35b34610198576020366003190112610198576004355f52600960205261099c60405f2061096081611b42565b9060ff6109b861097260018401611b42565b926109aa600361098460028401611b42565b9201549460405197889760a0895260a08901906117e4565b9087820360208901526117e4565b9085820360408701526117e4565b6001600160a01b038316606085015260a09290921c16151560808301520390f35b34610198575f366003190112610198576109f1611c0e565b5f80546001600160a01b0319811682556001600160a01b03167f8be0079c531659141344cd1fd0a4f28419497f9722a3daafe3b4186f6b6457e08280a3005b346101985760208060031936011261019857602481610a4d6117ce565b604051630d47875d60e41b81526001600160a01b03918216600482015292839182907f0000000000000000000000000000000000000000000000000000000000000000165afa908115610ad7575f91610aaa575b50604051908152f35b90508181813d8311610ad0575b610ac1818361193a565b81010312610198575182610aa1565b503d610ab7565b6040513d5f823e3d90fd5b34610198575f366003190112610198575f610140604051610b028161191e565b6060815260606020820152606060408201528260608201528260808201528260a08201528260c08201528260e08201528261010082015282610120820152015260045460055460065460075460085460018060a01b035f541691600d5493600e549560405197610b718961191e565b610b7961195b565b8952610b83611a14565b60208a0152610b90611aab565b60408a01526060890152608088015260a087015260c086015260e0850152610100840152610120830152610140820152604051809160208252610140610c18610be7835161016060208701526101808601906117e4565b610c03602085015191601f1992838883030160408901526117e4565b906040850151908683030160608701526117e4565b9160608101516080850152608081015160a085015260a081015160c085015260c081015160e085015260e081015161010085015260018060a01b03610100820151166101208501526101208101518285015201516101608301520390f35b346101985760208060031936011261019857610c906117ce565b5f60a0604051610c9f81611903565b8281528285820152826040820152826060820152826080820152015260018060a01b0380911691825f52600c815260248160405f209360405192838092630d47875d60e41b82528860048301527f0000000000000000000000000000000000000000000000000000000000000000165afa908115610ad7575f91610e1b575b505f915f60028501958654915b828110610dae5750505060c09450835493600360018201549101549160405195610d5487611903565b60a060ff821615159788815260ff8482019360081c161515835260408101948552606081019586526080810196875201958652604051968752511515908601525160408501525160608401525160808301525160a0820152f35b610db88189611e49565b90549060031b1c805f52600b9081865260405f20845f52865260ff600160405f20015416610df1575b5050610dec90611c9a565b610d2b565b96610e1391610dec93985f52865260405f20845f52865260405f205490611d0d565b959089610de1565b90508181813d8311610e41575b610e32818361193a565b81010312610198575184610d1e565b503d610e28565b34610198575f366003190112610198576040517f00000000000000000000000000000000000000000000000000000000000000006001600160a01b03168152602090f35b34610198575f36600319011261019857600e54610ea881611c5a565b90610eb6604051928361193a565b808252601f19610ec582611c5a565b015f5b818110610fde5750505f5b818110610f385760408051602080825285518183018190525f93600582901b8401810192808901929185015b828710610f0c5785850386f35b909192938280610f28600193603f198a82030186528851611822565b9601920196019592919092610eff565b80610fd9915f5260206009815260405f2090600a815260405f20916003810154610f93600285549360018097015495610f8960405198610f778a6118e8565b610f8084611b42565b8a528301611b42565b9088015201611b42565b60408501526001600160a01b038116606085015260a090811c60ff161515608085015283015260c0820152610fc88286612267565b52610fd38185612267565b50611c9a565b610ed3565b602090610fe961222e565b82828701015201610ec8565b34610198576040366003190112610198576004356024908135600e548210156111c8576103e89182821161118d57335f526020600c815260405f209360ff8554161561115c57600285015410158061113a575b61110657815f5260098152600360405f20015460ff8160a01c16156110d0576001600160a01b0316331461108d575061108b935061108583611d1a565b50611e72565b005b6064906017866040519262461bcd60e51b845260048401528201527f43616e6e6f7420766f7465206f6e206f776e20706f6c6c0000000000000000006044820152fd5b60405162461bcd60e51b815260048101839052600f818801526e506f6c6c206e6f742061637469766560881b6044820152606490fd5b606490600e866040519262461bcd60e51b845260048401528201526d546f6f206d616e7920766f74657360901b6044820152fd5b50815f52600b815260405f20335f52815260ff600160405f2001541615611048565b60405162461bcd60e51b815260048101839052600a8188015269139bdd081a9bda5b995960b21b6044820152606490fd5b60405162461bcd60e51b8152602060048201526014818601527324b73b30b634b2103b37ba34b733903837bbb2b960611b6044820152606490fd5b60405162461bcd60e51b8152602060048201526013602482015272141bdb1b08191bd95cc81b9bdd08195e1a5cdd606a1b6044820152606490fd5b34610198576020806003193601126101985760043561122061222e565b50600e548110156111c8575f526009815260405f2090600a815260405f2060038301549060ff6001825492015492611281600260405197611260896118e8565b61126981611b42565b895261127760018201611b42565b888a015201611b42565b604087015260018060a01b038116606087015260a01c161515608085015260a084015260c08301526107dc604051928284938452830190611822565b34610198576020366003190112610198576004356112d9611c0e565b600e548110156111c8575f818152600960209081526040909120600301805460ff60a01b19811660a091821c60ff9081161590921b60ff60a01b161782557fb7b8c0761d078843a3e84d05266ab3eca7a488cd293cce2eac1441c9287d4b5392915460a01c166040519015158152a2005b34610198575f36600319011261019857335f526020600c815260ff60405f20541661161457600119600d5410156115d85760085442116115a457604051630d47875d60e41b815233600482015281816024817f00000000000000000000000000000000000000000000000000000000000000006001600160a01b03165afa908115610ad7575f91611577575b50600654811061153a57600754118015919061153157600554905b6040516001600160401b039082810182811182821017610473576040525f81526040519161141e836118cd565b60019081845284840192878452604085018781526060860191825261147b6080870195428752335f52600c895260405f209751151560ff80198a54169116178855511515879061ff00825491151560081b169061ff001916179055565b5183860155600285019051805192831161047357600160401b83116104735786908254848455808510611516575b5001905f52855f205f5b838110611505575050505050600390519101556114d1600d54611c9a565b600d556040519283528201527f96d60ca9fe9fc21c942d5995e6de2db040128659708616614baa0e4feaf5d7d960403392a2005b8251828201559187019184016114b3565b61152b90845f5285845f209182019101611c84565b8a6114a9565b600454906113f1565b60405162461bcd60e51b815260048101839052601560248201527429b1b7b932903a37b7903637bb903a37903537b4b760591b6044820152606490fd5b90508181813d831161159d575b61158e818361193a565b810103126101985751826113d6565b503d611584565b6064906040519062461bcd60e51b82526004820152600d60248201526c141c9bda9958dd08195b991959609a1b6044820152fd5b6064906040519062461bcd60e51b825260048201526015602482015274546f6f206d616e79207061727469636970616e747360581b6044820152fd5b6064906040519062461bcd60e51b82526004820152600e60248201526d105b1c9958591e481a9bda5b995960921b6044820152fd5b3461019857602080600319360112610198576001600160a01b0361166b6117ce565b165f52600c8152600260405f2001604051908183825491828152019081925f52845f20905f5b868282106116e65786866116a78288038361193a565b60405192839281840190828552518091526040840192915f5b8281106116cf57505050500390f35b8351855286955093810193928101926001016116c0565b835485529093019260019283019201611691565b34610198576040366003190112610198576004356117166117b8565b91600e5482101561178057505f52600b60205260405f209060018060a01b03165f5260205260405f2080546107dc6002600184015493015460405193849360ff808360081c1692169085909493926060926080830196835215156020830152151560408201520152565b62461bcd60e51b8152602060048201526013602482015272141bdb1b08191bd95cc81b9bdd08195e1a5cdd606a1b6044820152606490fd5b602435906001600160a01b038216820361019857565b600435906001600160a01b038216820361019857565b91908251928382525f5b84811061180e575050825f602080949584010152601f8019910116010190565b6020818301810151848301820152016117ee565b9060c08061186361185161183f865160e0875260e08701906117e4565b602087015186820360208801526117e4565b604086015185820360408701526117e4565b6060808601516001600160a01b03169085015260808086015115159085015260a0808601519085015293015191015290565b90600182811c921680156118c3575b60208310146118af57565b634e487b7160e01b5f52602260045260245ffd5b91607f16916118a4565b60a081019081106001600160401b0382111761047357604052565b60e081019081106001600160401b0382111761047357604052565b60c081019081106001600160401b0382111761047357604052565b61016081019081106001600160401b0382111761047357604052565b90601f801991011681019081106001600160401b0382111761047357604052565b604051905f8260019182549261197084611895565b808452938181169081156119f25750600114611996575b506119949250038361193a565b565b5f81815291507fb10e2d527612073b26eecdfd717e6a320cf44b4afac2b0732d9fcbe2b7fa0cf65b8483106119d7575061199493505081016020015f611987565b81935090816020925483858a010152019101909185926119be565b90506020925061199494915060ff191682840152151560051b8201015f611987565b604051905f8260025491611a2783611895565b808352926001908181169081156119f25750600114611a4d57506119949250038361193a565b60025f90815291507f405787fa12a823e0f2b7631cc41b3ba8828b3321ca811111fa75cd3aa3bb5ace5b848310611a90575061199493505081016020015f611987565b81935090816020925483858a01015201910190918592611a77565b604051905f8260035491611abe83611895565b808352926001908181169081156119f25750600114611ae457506119949250038361193a565b60035f90815291507fc2575a0e9e593c00f959f8c92f12db2869c3395a3b0502d05e2516446f71f85b5b848310611b27575061199493505081016020015f611987565b81935090816020925483858a01015201910190918592611b0e565b9060405191825f825492611b5584611895565b9081845260019485811690815f14611bbe5750600114611b7e575b50506119949250038361193a565b909391505f52602090815f20935f915b818310611ba657505061199493508201015f80611b70565b85548884018501529485019487945091830191611b8e565b91505061199494506020925060ff191682840152151560051b8201015f80611b70565b9181601f84011215610198578235916001600160401b038311610198576020838186019501011161019857565b5f546001600160a01b03163303611c2157565b60405163118cdaa760e01b8152336004820152602490fd5b91908203918211611c4657565b634e487b7160e01b5f52601160045260245ffd5b6001600160401b0381116104735760051b60200190565b81810292918115918404141715611c4657565b818110611c8f575050565b5f8155600101611c84565b5f198114611c465760010190565b9291926001600160401b0382116104735760405191611cd1601f8201601f19166020018461193a565b829481845281830111610198578281602093845f960137010152565b908060209392818452848401375f828201840152601f01601f1916010190565b91908201809211611c4657565b805460ff8160081c161580611e2f575b611d35575b50505f90565b604051630d47875d60e41b81523360048201526020816024817f00000000000000000000000000000000000000000000000000000000000000006001600160a01b03165afa908115610ad7575f91611dfb575b5042600384015560075411611d2f576101009061ff0019161781556001611db460055460045490611c39565b9101611dc1828254611d0d565b9055604051906001825260208201527fb342d6785b1365946eaa7a51774c26bdf52a779d0a98f688ec1b00cd5ef0eeb160403392a2600190565b906020823d8211611e27575b81611e146020938361193a565b81010312611e245750515f611d88565b80fd5b3d9150611e07565b506003820154610e108101809111611c4657421015611d2a565b8054821015611e5e575f5260205f2001905f90565b634e487b7160e01b5f52603260045260245ffd5b915f908382526020600b8152604091828420338552825282842090868552600a83528385206001958684019384549460ff868180981661206b575b5050845460081c861661205b57888a0361200c57885b808601938a855410611fd2578783541615611f64575b5090611f09918b845560ff1982541617815586865460081c1661ff00825491151560081b169061ff001916179055565b600242910155611f1a878254611c39565b9055611f27878254611d0d565b90555460081c1682519485521515908401528201527fe89c99a0264d21c2ad18316d6e7b3aa31414c12f31b085afdeeacaa7e69f80b660603392a3565b818601611f718154611c9a565b905560028701805491600160401b831015611fbe57508d611f9f83611fb79386611f09989796018155611e49565b90919082549060031b91821b915f19901b1916179055565b9091611ed9565b634e487b7160e01b81526041600452602490fd5b895162461bcd60e51b8152600481018a90526013602482015272496e73756666696369656e7420746f6b656e7360681b6044820152606490fd5b875162461bcd60e51b815260048101889052602260248201527f526567756c61722075736572732063616e206f6e6c792063617374203120766f604482015261746560f01b6064820152608490fd5b6120658a80611c71565b98611ec3565b60081c16156122285761207f825480611c71565b61208d8a8701918254611d0d565b905561209b82548554611c39565b845589156120aa57855f611ead565b50509493959796508701805480158015612203575b5050506002810184885b612132575b5050909192600286978296978352600b88528583203384528852828681209181835582015501555460081c16928151938385521515908401528201527fe89c99a0264d21c2ad18316d6e7b3aa31414c12f31b085afdeeacaa7e69f80b660603392a3565b8154808210156121fd5788906121488385611e49565b929054600393841b1c1461216a575050906121638992611c9a565b90916120c9565b9092915f9a9495969798999a19918281019081116121e95790611f9f6121936121a09386611e49565b905490871b1c9185611e49565b815480156121d5579181600294928a969401926121bd8484611e49565b81939154921b1b1916905555979695949392916120ce565b634e487b7160e01b89526031600452602489fd5b634e487b7160e01b8a52601160045260248afd5b506120ce565b612214575f190190555f80806120bf565b634e487b7160e01b86526011600452602486fd5b8861207f565b6040519061223b826118e8565b5f60c0836060815260606020820152606060408201528260608201528260808201528260a08201520152565b8051821015611e5e5760209160051b01019056fea2646970667358221220b8ab190dbfadec8da44dc35a61f797dee45bc6bd8c27a50520d62f4c86284ea764736f6c63430008140033",
    "linkReferences": {}
  },
  "methodIdentifiers": {
    "castVote(uint256,uint256)": "2c0a3f89",
    "config()": "79502c55",
    "createPoll(string,string,string)": "e201201c",
    "getAllPolls()": "32b633fa",
    "getPassportScore(address)": "6ae25df9",
    "getPollInfo(uint256)": "29b8f44a",
    "getProjectInfo()": "67c897fe",
    "getUserInfo(address)": "6386c1c7",
    "getUserVotedPolls(address)": "12347294",
    "getVoteInfo(uint256,address)": "0d524bc6",
    "joinProject()": "132972c4",
    "owner()": "8da5cb5b",
    "passportScorer()": "4905e831",
    "pollCount()": "9207891d",
    "pollsCore(uint256)": "793eb9c4",
    "pollsStats(uint256)": "de075be5",
    "renounceOwnership()": "715018a6",
    "togglePollStatus(uint256)": "251e02d7",
    "totalParticipants()": "a26dbf26",
    "transferOwnership(address)": "f2fde38b",
    "users(address)": "a87430ba",
    "votes(uint256,address)": "d23254b4"
  },
  "id": 28
}